:100000000C943E000C9450000C9450000C94500042
:100010000C9450000C9450000C9450000C94500020
:100020000C9450000C9450000C9450000C94500010
:100030000C9450000C9450000C9450000C94500000
:100040000C9450000C9450000C9450000C945000F0
:100050000C9450000C9450000C9450000C945000E0
:100060000C9450000C9450000C9450000C945000D0
:100070000C9450000C9450000C94500011241FBE9E
:10008000CFEFD0E1DEBFCDBF11E0A0E0B1E001C015
:100090001D92A832B107E1F70E948A000C94EB0090
:1000A0000C940000682F40E050E021E01BC030E0DD
:1000B000862F90E081709070829FA001839F500DE9
:1000C000929F500D1124C90173E0880F991F7A95F2
:1000D000E1F7220F331F280F962F9695862F8170F8
:1000E000692F681B662319F7CA0108951092C5008D
:1000F0008DE48093C40088E18093C10086E0809302
:10010000C2000895982F8091C00085FFFCCF909386
:10011000C6000895CF93DF938CED95E090930B018B
:1001200080930A0190930D0180930C0190930F012D
:1001300080930E019093110180931001909313010D
:100140008093120187E68093640082E084B9109264
:1001500087001092860080938100B59B06C0809135
:1001600086009091870080E286BBC0E0D0E0FE016F
:10017000E65FFE4F80819181805293406CE270E097
:100180000E94D700862F0E945200FE01E25EFE4FC1
:10019000918380832296CC30D10549F790911E013E
:1001A0008091C00085FFFCCF9093C600F9CFAA1BB9
:1001B000BB1B51E107C0AA1FBB1FA617B70710F052
:1001C000A61BB70B881F991F5A95A9F78095909584
:0A01D000BC01CD010895F894FFCFA3
:00000001FF
